:020000040800F2
:1000000080ED0024D9510008BFC90208C55100087D
:10001000C5510008C5510008C55100080000000086
:100020000000000000000000000000009D520008D9
:10003000C55100080000000039520008812B01085A
:1000400061540008615400086154000861540008BC
:1000500061540008615400086154000861540008AC
:10006000615400086154000861540008615400089C
:10007000615400086154000861540008615400088C
:1002A00001F0FF01102A2BDB10F0070F08D010F827
:1002B000013B013A8B422DD010F0070F42B3F6D12B
:1002C000F0B441EA012141EA014122F007047FF044
:1002D00000070023F0E80256083C85EA010586EA9B
:1002E000010685FA47F5A3FA87F586FA47F6A5FAD7
:1002F00087F68EB9EED1F0BC01F0FF0102F00702E3
:1003000032B110F8013B013A83EA010313B1F8D18D
:100310000020704701387047002D06BF354603386E
:10032000073815F0010F07D1013015F4807F02BFA7
:10033000013015F4C03F0130F0BC0138704700BFF8
:1003400081F0004102E000BF83F0004330B54FEA86
:1003500041044FEA430594EA050F08BF90EA020FF3
:100360001FBF54EA000C55EA020C7FEA645C7FEA86
:10037000655C00F0E2804FEA5454D4EB5555B8BFA9
:100380006D420CDD2C4480EA020281EA030382EA1A
:10039000000083EA010180EA020281EA0303362DAC
:1003A00088BF30BD11F0004F4FEA01314FF4801C7F
:1003B0004CEA113102D0404261EB410113F0004F91
:1003C0004FEA03334CEA133302D0524263EB430348
:1003D00094EA050F00F0A780A4F10104D5F1200EE6
:1003E0000DDB02FA0EFC22FA05F2801841F1000141
:1003F00003FA0EF2801843FA05F359410EE0A5F115
:1004000020050EF1200E012A03FA0EFC28BF4CF045
:10041000020C43FA05F3C01851EBE37101F00045FB
:1004200007D54FF0000EDCF1000C7EEB00006EEB08
:100430000101B1F5801F1BD3B1F5001F0CD3490892
:100440005FEA30004FEA3C0C04F101044FEA4452E9
:1004500012F5800F80F09A80BCF1004F08BF5FEA70
:10046000500C50F1000041EB045141EA050130BD50
:100470005FEA4C0C404141EB0101013C28BFB1F562
:10048000801FE9D291F0000F04BF01460020B1FAAD
:1004900081F308BF2033A3F10B03B3F120020CDA80
:1004A0000C3208DD02F1140CC2F10C0201FA0CF05E
:1004B00021FA02F10CE002F11402D8BFC2F1200CC3
:1004C00001FA02F120FA0CFCDCBF41EA0C01904079
:1004D000E41AA2BF01EB0451294330BD6FEA0404C2
:1004E0001F3C1CDA0C340EDC04F11404C4F12002AD
:1004F00020FA04F001FA02F340EA030021FA04F3BF
:1005000045EA030130BDC4F10C04C4F1200220FA15
:1005100002F001FA04F340EA0300294630BD21FA53
:1005200004F0294630BD94F0000F83F4801306BF19
:1005300081F480110134013D4EE77FEA645C18BF0D
:100540007FEA655C29D094EA050F08BF90EA020FA4
:1005500005D054EA000C04BF1946104630BD91EA9C
:10056000030F1EBF0021002030BD5FEA545C05D19F
:100570004000494128BF41F0004130BD14F58004DE
:100580003CBF01F5801130BD01F0004545F0FE4152
:1005900041F470014FF0000030BD7FEA645C1ABF87
:1005A000194610467FEA655C1CBF0B46024650EABE
:1005B000013406BF52EA033591EA030F41F40021EA
:1005C00030BD00BF90F0000F04BF0021704730B570
:1005D0004FF4806404F132044FF000054FF0000145
:1005E00050E700BF90F0000F04BF0021704730B506
:1005F0004FF4806404F1320410F0004548BF4042DB
:100600004FF000013EE700BF42004FEAE2014FEA2F
:1006100031014FEA02701FBF12F07F4393F07F4F0A
:1006200081F06051704732F07F4208BF704793F00D
:100630007F4F04BF41F40021704730B54FF4607420
:1006400001F0004521F000411CE700BF50EA010223
:1006500008BF704730B54FF000050AE050EA0102CC
:1006600008BF704730B511F0004502D5404261EB3C
:1006700041014FF4806404F132045FEA915C3FF47D
:10068000D8AE4FF003025FEADC0C18BF03325FEA1A
:10069000DC0C18BF033202EBDC02C2F1200300FACB
:1006A00003FC20FA02F001FA03FE40EA0E0021FAF0
:1006B00002F11444BDE600BF70B54FF0FF0C4CF4DE
:1006C000E06C1CEA11541DBF1CEA135594EA0C0F90
:1006D00095EA0C0F00F0DEF82C4481EA030621EACB
:1006E0004C5123EA4C5350EA013518BF52EA033506
:1006F00041F4801143F4801338D0A0FB02CE4FF0B8
:100700000005E1FB02E506F00042E0FB03E54FF0E7
:100710000006E1FB03569CF0000F18BF4EF0010EDF
:10072000A4F1FF04B6F5007F64F5407404D25FEADB
:100730004E0E6D4146EB060642EAC62141EA55518E
:100740004FEAC52040EA5E504FEACE2EB4F1FD0CD0
:1007500088BFBCF5E06F1ED8BEF1004F08BF5FEA4E
:10076000500E50F1000041EB045170BD06F0004600
:1007700046EA010140EA020081EA0301B4EB5C04AD
:10078000C2BFD4EB0C0541EA045170BD41F48011A5
:100790004FF0000E013C00F3AB8014F1360FDEBFCA
:1007A000002001F0004170BDC4F10004203C35DAA6
:1007B0000C341BDC04F11404C4F1200500FA05F329
:1007C00020FA04F001FA05F240EA020001F00042CA
:1007D00021F0004110EBD37021FA04F642EB060140
:1007E0005EEA430E08BF20EAD37070BDC4F10C046A
:1007F000C4F1200500FA04F320FA05F001FA04F22E
:1008000040EA020001F0004110EBD37041F1000119
:100810005EEA430E08BF20EAD37070BDC4F1200524
:1008200000FA05F24EEA020E20FA04F301FA05F28C
:1008300043EA020321FA04F001F0004121FA04F234
:1008400020EA020000EBD3705EEA430E08BF20EA04
:10085000D37070BD94F0000F0FD101F0004640003E
:1008600041EB010111F4801F08BF013CF7D041EAC0
:10087000060195F0000F18BF704703F000465200C4
:1008800043EB030313F4801F08BF013DF7D043EA95
:100890000603704794EA0C0F0CEA135518BF95EA4B
:1008A0000C0F0CD050EA410618BF52EA4306D1D1D2
:1008B00081EA030101F000414FF0000070BD50EAF1
:1008C000410606BF1046194652EA430619D094EA7B
:1008D0000C0F02D150EA013613D195EA0C0F05D165
:1008E00052EA03361CBF104619460AD181EA0301B9
:1008F00001F0004141F0FE4141F470014FF0000071
:1009000070BD41F0FE4141F4780170BD70B54FF00B
:10091000FF0C4CF4E06C1CEA11541DBF1CEA13558B
:1009200094EA0C0F95EA0C0F00F0A7F8A4EB05046D
:1009300081EA030E52EA03354FEA013100F0888064
:100940004FEA03334FF0805545EA131343EA12632D
:100950004FEA022245EA111545EA10654FEA0026E2
:100960000EF000419D4208BF964244F1FD0404F59B
:10097000407402D25B084FEA3202B61A65EB0305F7
:100980005B084FEA32024FF480104FF4002CB6EBB4
:10099000020E75EB030E22BFB61A754640EA0C0034
:1009A0005B084FEA3202B6EB020E75EB030E22BF74
:1009B000B61A754640EA5C005B084FEA3202B6EBB5
:1009C000020E75EB030E22BFB61A754640EA9C0074
:1009D0005B084FEA3202B6EB020E75EB030E22BF44
:1009E000B61A754640EADC0055EA060E18D04FEA02
:1009F000051545EA16754FEA06164FEAC30343EAA2
:100A000052734FEAC2025FEA1C1CC0D111F4801F6E
:100A10000BD141EA00014FF000004FF0004CB6E767
:100A200011F4801F04BF01430020B4F1FD0C88BF06
:100A3000BCF5E06F3FF6AFAEB5EB030C04BFB6EB11
:100A4000020C5FEA500C50F1000041EB045170BD04
:100A50000EF0004E4EEA113114EB5C04C2BFD4EB31
:100A60000C0541EA045170BD41F480114FF0000EB5
:100A7000013C90E645EA060E8DE60CEA135594EA31
:100A80000C0F08BF95EA0C0F3FF43BAF94EA0C0F34
:100A90000AD150EA01347FF434AF95EA0C0F7FF4A9
:100AA00025AF104619462CE795EA0C0F06D152EAFD
:100AB00003353FF4FDAE1046194622E750EA4106E1
:100AC00018BF52EA43067FF4C5AE50EA41047FF4F2
:100AD0000DAF52EA43057FF4EBAE12E74FF0FF3C57
:100AE00006E000BF4FF0010C02E000BF4FF0010C28
:100AF0004DF804CD4FEA410C7FEA6C5C4FEA430CA1
:100B000018BF7FEA6C5C1BD001B050EA410C0CBFEF
:100B100052EA430C91EA030F02BF90EA020F002051
:100B2000704710F1000F91EA030F58BF994208BFB8
:100B300090422CBFD8176FEAE37040F00100704775
:100B40004FEA410C7FEA6C5C02D150EA013C07D1CC
:100B50004FEA430C7FEA6C5CD6D152EA033CD3D017
:100B60005DF8040B704700BF8446104662468C4611
:100B70001946634600E000BF01B5FFF7B7FF002844
:100B800048BF10F1000F01BD4DF808EDFFF7F4FF6D
:100B90000CBF012000205DF808FB00BF4DF808EDF8
:100BA000FFF7EAFF34BF012000205DF808FB00BF1B
:100BB0004DF808EDFFF7E0FF94BF012000205DF83D
:100BC00008FB00BF4DF808EDFFF7CEFF94BF0120F2
:100BD00000205DF808FB00BF4DF808EDFFF7C4FFEB
:100BE00034BF012000205DF808FB00BF4A0011D28D
:100BF00012F5001211D20DD56FF47873B3EB625277
:100C00000ED44FEAC12343F0004343EA505323FA82
:100C100002F070474FF00000704750EA013002D1F7
:100C20004FF0FF3070474FF00000704780F00040F9
:100C300002E000BF81F0004142001FBF5FEA4103B4
:100C400092EA030F7FEA226C7FEA236C6AD04FEAB4
:100C50001262D2EB1363C1BFD218414048404140F9
:100C6000B8BF5B42192B88BF704710F0004F40F4AB
:100C7000000020F07F4018BF404211F0004F41F4C7
:100C8000000121F07F4118BF494292EA030F3FD093
:100C9000A2F1010241FA03FC10EB0C00C3F12003A6
:100CA00001FA03F100F0004302D5494260EB400035
:100CB000B0F5000F13D3B0F1807F06D340084FEAA0
:100CC000310102F10102FE2A51D2B1F1004F40EB95
:100CD000C25008BF20F0010040EA030070474900FD
:100CE00040EB0000013A28BFB0F5000FEDD2B0FA9A
:100CF00080FCACF1080CB2EB0C0200FA0CF0AABFBD
:100D000000EBC25052421843BCBFD040184370475A
:100D100092F0000F81F4000106BF80F40000013260
:100D2000013BB5E74FEA41037FEA226C18BF7FEA37
:100D3000236C21D092EA030F04D092F0000F08BF79
:100D40000846704790EA010F1CBF0020704712F060
:100D50007F4F04D1400028BF40F00040704712F19F
:100D600000723CBF00F50000704700F0004343F004
:100D7000FE4040F4000070477FEA226216BF08463A
:100D80007FEA23630146420206BF5FEA412390EAFD
:100D9000010F40F4800070474FF0000304E000BFF3
:100DA00010F0004348BF40425FEA000C08BF7047A4
:100DB00043F0964301464FF000001CE050EA010268
:100DC00008BF70474FF000030AE000BF50EA01027D
:100DD00008BF704711F0004302D5404261EB41016A
:100DE0005FEA010C02BF84460146002043F0B6438F
:100DF00008BFA3F18053A3F50003BCFA8CF2083AB4
:100E0000A3EBC25310DB01FA02FC634400FA02FCBC
:100E1000C2F12002BCF1004F20FA02F243EB0200C3
:100E200008BF20F00100704702F1200201FA02FC25
:100E3000C2F1200250EA4C0021FA02F243EB020018
:100E400008BF20EADC7070474FF0FF0C1CEAD0525C
:100E50001EBF1CEAD15392EA0C0F93EA0C0F6FD01D
:100E60001A4480EA010C400218BF5FEA41211ED0FB
:100E70004FF0006343EA501043EA5111A0FB0131E7
:100E80000CF00040B1F5000F3EBF490041EAD371BC
:100E90005B0040EA010062F17F02FD2A1DD8B3F138
:100EA000004F40EBC25008BF20F00100704790F0A7
:100EB000000F0CF0004C08BF49024CEA502040EAF9
:100EC00051207F3AC2BFD2F1FF0340EAC2507047BF
:100ED00040F400004FF00003013A5DDC12F1190FFD
:100EE000DCBF00F000407047C2F10002410021FA6F
:100EF00002F1C2F1200200FA02FC5FEA310040F187
:100F0000000053EA4C0308BF20EADC70704792F0FF
:100F1000000F00F0004C02BF400010F4000F013A37
:100F2000F9D040EA0C0093F0000F01F0004C02BF32
:100F3000490011F4000F013BF9D041EA0C018FE7A1
:100F40000CEAD15392EA0C0F18BF93EA0C0F0AD0A7
:100F500030F0004C18BF31F0004CD8D180EA0100CD
:100F600000F00040704790F0000F17BF90F0004F66
:100F7000084691F0000F91F0004F14D092EA0C0F48
:100F800001D142020FD193EA0C0F03D14B0218BFDB
:100F9000084608D180EA010000F0004040F0FE4021
:100FA00040F40000704740F0FE4040F440007047BD
:100FB0004FF0FF0C1CEAD0521EBF1CEAD15392EA3C
:100FC0000C0F93EA0C0F69D0A2EB030280EA010C2C
:100FD00049024FEA402037D04FF0805343EA1111C5
:100FE00043EA10130CF000408B4238BF5B0042F123
:100FF0007D024FF4000C8B4224BF5B1A40EA0C00C8
:10100000B3EB510F24BFA3EB510340EA5C00B3EBF9
:10101000910F24BFA3EB910340EA9C00B3EBD10FE7
:1010200024BFA3EBD10340EADC001B0118BF5FEA39
:101030001C1CE0D1FD2A3FF650AF8B4240EBC25062
:1010400008BF20F0010070470CF0004C4CEA502023
:101050007F32C2BFD2F1FF0340EAC250704740F472
:1010600000004FF00003013A37E792F0000F00F064
:10107000004C02BF400010F4000F013AF9D040EAE2
:101080000C0093F0000F01F0004C02BF490011F476
:10109000000F013BF9D041EA0C0195E70CEAD1536E
:1010A00092EA0C0F08D142027FF47DAF93EA0C0F55
:1010B0007FF470AF084676E793EA0C0F04D14B0239
:1010C0003FF44CAF08466EE730F0004C18BF31F0EB
:1010D000004CCAD130F000427FF45CAF31F00043E5
:1010E0007FF43CAF5FE700BF4FF0FF3C06E000BF7E
:1010F0004FF0010C02E000BF4FF0010C4DF804CDA1
:101100004FEA40024FEA41037FEA226C18BF7FEAB0
:10111000236C11D001B052EA530C18BF90EA010FB2
:1011200058BFB2EB030088BFC81738BF6FEAE17041
:1011300018BF40F0010070477FEA226C02D15FEADD
:10114000402C05D17FEA236CE4D15FEA412CE1D049
:101150005DF8040B704700BF844608466146FFE710
:101160000FB5FFF7C9FF002848BF10F1000F0FBDF2
:101170004DF808EDFFF7F4FF0CBF012000205DF8EB
:1011800008FB00BF4DF808EDFFF7EAFF34BF012070
:1011900000205DF808FB00BF4DF808EDFFF7E0FF09
:1011A00094BF012000205DF808FB00BF4DF808ED5A
:1011B000FFF7D2FF94BF012000205DF808FB00BFBD
:1011C0004DF808EDFFF7C8FF34BF012000205DF89F
:1011D00008FB00BF4FEA4002B2F1FE4F0FD34FF0C1
:1011E0009E03B3EB12620DD94FEA002343F0004394
:1011F00010F0004F23FA02F018BF404270474FF042
:101200000000704712F1610F01D1420205D110F0C8
:10121000004008BF6FF0004070474FF0000070477B
:1012200042000ED2B2F1FE4F0BD34FF09E03B3EB50
:10123000126209D44FEA002343F0004323FA02F07C
:1012400070474FF00000704712F1610F01D1420268
:1012500002D14FF0FF3070474FF00000704700BFE1
:101260007BB972B90029BEBF00204FF0004106E0F3
:1012700008BF00281CBF6FF000414FF0FF3000F0A6
:10128000AFBDADF1080C6DE904CE002909DB002BE0
:101290001ADB00F0D4FDDDF804E0DDE9022304B040
:1012A0007047404261EB4101002B1BDB00F0C7FDA2
:1012B000DDF804E0DDE9022304B0404261EB4101C6
:1012C000524263EB43037047524263EB430300F027
:1012D000B6FDDDF804E0DDE9022304B0404261EB35
:1012E00041017047524263EB430300F0A8FDDDF873
:1012F00004E0DDE9022304B0524263EB430370478C
:1013000053B94AB9002908BF00281CBF4FF0FF316C
:101310004FF0FF3000F064BDADF1080C6DE904CE74
:1013200000F08DFDDDF804E0DDE9022304B0704734
:1013300003685A004CBF43F0004323F000431844B5
:1013400070472DE9F0470646174641B301398846F4
:101350004FF0000909EB080404EBD474641006EBA9
:10136000C4052846FFF7E4FFA1424FEAC40A04D1AE
:10137000B84204D82846BDE8F087B84204D9A14550
:101380000DD004F1FF38E5E70AF108003044FFF71B
:10139000CFFF0138B842EDD204F10109DAE70025A8
:1013A000E8E7012806D0022806D00028034818BF25
:1013B000002070470248704702487047BD19000876
:1013C000C1190008C51900081F4B37B504468D1E0A
:1013D0004BB101A92846AFF3008048B9002309208A
:1013E000236103B030BD1948194B1B1ADB10019360
:1013F00001992A46FFF7A5FF01460028EED0FFF726
:1014000097FF4B68A064012B1AD0002B01F1040058
:1014100010DBFFF78DFF0023C4E913030368002BE3
:101420000ADAC3F30360FFF7BCFF03460028D5D0F8
:101430000020D5E70123EFE7FFF77AFF0346F7E740
:1014400000230520CCE700BF00000000A002040834
:10145000601104080368DA0710B5044605D49B0739
:1014600000F1480018D500F0F9FB2368590703D4B0
:1014700004F1D00000F0FAFB23681A0703D404F546
:10148000A87000F0FBFB2368DB0608D404F5E870C5
:10149000BDE8104000F036BC00F0D8FBE5E710BD19
:1014A000092070470346006800B118447047704730
:1014B00070B505460C46216C2846FFF785FF0646A9
:1014C00008B104F0A7F9236C6B6122462B69294609
:1014D000012098470828EED00728F2D13046216C29
:1014E000FFF7E5FF201D00F0A5FB2DE9F0470C1DDF
:1014F000D0F80C90D0F818A0074616460FCCADF5E2
:10150000727D03AD0FC50FCC0FC50FCC0FC594E88E
:101510000F000DF1080885E80F000025C8F80050FD
:10152000D8F840103846FFF74FFF0936F6B20446A8
:1015300068BBD8F840307B614FF4F07241467AA81E
:101540003DF014FB3B697AAA394630469847889BA0
:101550000546C8F844303A46CDE9008A3B46314654
:101560000120C847C0B9C4B94FF4F0727AA9404607
:101570003DF0FCFA082D2646D2D0072D0CD120468E
:10158000D8F84010FFF793FF03A800F053FBD8F8FA
:10159000383046F01006DCE7092420460DF5727D50
:1015A000BDE8F087406C7047F0B5CB6B0B640D1D48
:1015B00006460F460FCDF9B001AC0FC40FCD0FC4D6
:1015C0000FCD0FC495E80F0084E80F004FF0FF33F4
:1015D000009310993046FFF7F7FE78B933696A46F1
:1015E0003146984708280446F3D06846FFF732FF93
:1015F000062C03D139463046FFF75AFF092079B04F
:10160000F0BD10B48261DA6BC16010BC1A64194677
:1016100000226AE770B5C66843690B6404460D464C
:1016200026B10122FFF761FF04F0F4F803690A46CE
:10163000014602209847072805D00828F4D12946FA
:101640002046FFF735FF3046296CFFF730FF281D95
:1016500000F0F0FAC26802B9A6E7CA6B0A64002279
:1016600043E77047836801460BB101201847704774
:10167000012910B50446084605D005D9C81E012821
:101680008CBF0220012010BD43B90F2A06D804EBFD
:101690008204029A616811601846F4E70220F2E7BA
:1016A0001FB503AB009300230A461946FFF7E0FF7E
:1016B000039805B05DF804FB012910B504460846FF
:1016C00005D005D9C81E01288CBF0220012010BDFD
:1016D00043B90F2A06D8029904EB820409686160B5
:1016E0001846F4E70220F2E71FB503AB009300238E
:1016F00003920A461946FFF7DFFF05B05DF804FBC9
:10170000F0B5D36B1364141D06460F460FCCADF530
:101710000F7D17AD0FC50FCC0FC50FCC0FC594E8CB
:101720000F0085E80F004FF0FF33169326996846A7
:10173000FFF74AFE90B90C2116A86A46FFF7D4FFBE
:10174000394616A8B04748B9049B16AA694608202E
:1017500098470528044602D00928E7D1092416A88D
:10176000FFF778FE20460DF50F7DF0BD2DE9F04F17
:10177000CD6C87B0174655F8042B04950C4600F045
:1017800003099A463BBB12028DF8153003920323DE
:101790008DF81430236DB9F1020F08BFA56B13F05B
:1017A000010322D100F0080800932B6843BB03A972
:1017B000384600F0B9FC002840F0FB80009BDBB10C
:1017C0000F213846FFF76CFF0E2102463846FFF71F
:1017D0008BFF794A55E0130C8DF815301204DBB2FB
:1017E00005EB830503920223D2E703A9384600F0F4
:1017F0009BFC002840F0DD80082007B0BDE8F08F9A
:10180000BAF1020F0CBFD5F804B0B5F802B0A26C63
:1018100018BF2B8801930CBF05F108062E1D0F2160
:101820002BF0010538461544FFF73AFF8542019B2E
:1018300029D823F001022A44824294BF00220122C7
:101840004FEA4B0000F0020003F0010340EA0305F9
:10185000012D1AD0022D5ED0002D40F0AA80351D3A
:10186000B9F1000FA1D0002A9FD03046FFF760FDEC
:10187000A563064620463CF089FA002800F09980CE
:1018800032460F213FE00022DAE7B9F1000F26D1FE
:10189000002A3DD073683268991C4FEAD27200F07A
:1018A000888004F158010133029109D0301DFFF7FF
:1018B000F9FD02AB0146204626F05EF8054638B336
:1018C0000D213846FFF7ECFE022D029B206202D16B
:1018D000E36204F12C03C4E9093606208DE70D21EB
:1018E0003846FFF7DDFE256A854211D1A36A9E4284
:1018F0000ED13046FFF71CFD0F2102463846FFF798
:10190000F3FE224600213846FFF7EEFE072074E77B
:1019100006F1080549E7356825F00045B9F1000FE3
:101920002AD1A2B1B8F1000F19D085B9CB4617E082
:101930000BF1010B019B029306EB8B00FFF7B2FD4D
:101940000022014602AB204626F016F858B1336853
:10195000002B00DA0436013506EB850525E7C34682
:1019600004F158030193AB45E2D10D213846FFF74E
:1019700097FE029B2062AEE70D213846FFF790FEEE
:10198000D4F820B08345E2D1A36A9E42DFD14FF064
:10199000000B0423C4E90BB3F318A5626363336837
:1019A0005B4503DA681C06EB8000A3E70123009384
:1019B000D1E7092021E700BF397A02080023D5E6E4
:1019C0000123D3E60223D1E62DE9F0410546C2B05A
:1019D00014461E46042925D8DFE811F005001C0036
:1019E0002400D6000401EEB9836B92B201210430C9
:1019F00001FA06F717421CBF53F8047B40F8267023
:101A00000136102EF4D1A60400D4AB63002042B0FE
:101A1000BDE8F081012E4FEA124794B204D13B1980
:101A2000102B41D90220F2E7052EFBD107EB040869
:101A3000B8F1200FF6D80F2F4DD9002CE6D003684F
:101A40005807A04608D5284623F0040340F8D03BA9
:101A500000F010F90F2F48D9684600F00BF9AB6B76
:101A6000102F3A4642A938BF102201EBC2024FEABA
:101A70004808A2F5C47208F1FF38101F4FEA880128
:101A800002EB88021C4654F804CB40F804CF824293
:101A9000F9D10A1D012E134417D00F2FAB636FD954
:101AA000684600F0E3F8B1E7102FBBD00368DA070F
:101AB00005D523F0030340F8483B00F0CBF820A8FD
:101AC00000F0C8F8AB6B002C3FD10433AB6320A807
:101AD00000F0BCF89AE7B8F1100F03682DD9DC07C5
:101AE000A8F1100842D45807ADD420A800F0BAF8E5
:101AF000C7F11004684600F0BDF8640020AAAB6B83
:101B000002EBC702013C101FA10002EB84021C463D
:101B100054F804CB40F804CF9042F9D10A1D134485
:101B2000B8F1000F9CD1012ECFD00F2FAB633FF641
:101B30006DAF20A800F092F868E7D9070DD420A86F
:101B400000F090F8AB6B002CF3D0640020AA02EBFD
:101B5000C702013C4FF00008D5E723F0010343F032
:101B6000020340F8483B00F07DF8E8E723F001036A
:101B700043F0020340F8483B00F074F82B68B2E7EA
:101B800020A800F06BF88BE7032E7FF44BAF97B2E1
:101B900007EB1244102C4FEA12463FF643AF03689E
:101BA000190706D523F00803036000F5A87000F0BC
:101BB00087F820A800F084F8AA6B20AB03EBC603DB
:101BC000F900D41A03EBC707BB4203EB040005D1AD
:101BD0000A44AA6320A800F051F817E7006843F808
:101BE000040BF1E7002E7FF41DAF102A3FF61AAF69
:101BF0000368DA0606D523F01003036000F5E870E9
:101C000000F08AF820AE304600F086F8AB6B002278
:101C1000012101FA02F020421CBF53F8040B46F8E0
:101C200022000132042AF4D1AB63304600F06AF896
:101C3000ECE600BF00F1340191E838009C46A6466E
:101C40004CF8045D90E8FF0FE54600BD90EC210BD9
:101C5000704700BF80EC210B704700BF90EC200B59
:101C6000704700BF80EC200B704700BFD0EC200B0A
:101C7000704700BFC0EC200B704700BFF0EC0201C2
:101C8000F0EC0211F0EC0221F0EC0231F0EC024138
:101C9000F0EC0251F0EC0261F0EC0271F0EC028128
:101CA000F0EC0291F0EC02A1F0EC02B1F0EC02C118
:101CB000F0EC02D1F0EC02E1F0EC02F1704700BF71
:101CC000E0EC0201E0EC0211E0EC0221E0EC023178
:101CD000E0EC0241E0EC0251E0EC0261E0EC027168
:101CE000E0EC0281E0EC0291E0EC02A1E0EC02B158
:101CF000E0EC02C1E0EC02D1E0EC02E1E0EC02F148
:101D0000704700BFB0FC0181B0FC0191B0FC01A1A3
:101D1000B0FC01B1704700BFA0FC0181A0FC0191A3
:101D2000A0FC01A1A0FC01B1704700BFEC4600B5CA
:101D30002DE900502DE9FF1F4FF000032DE90C00A5
:101D400001A9FFF731FCDDF840E012B0704700BF99
:101D5000EC4600B52DE900502DE9FF1F4FF00003C0
:101D60002DE90C0001A9FFF755FCDDF840E012B0A9
:101D7000704700BFEC4600B52DE900502DE9FF1F6C
:101D80004FF000032DE90C0001A9FFF763FCDDF81B
:101D900040E012B0704700BFEC4600B52DE900509E
:101DA0002DE9FF1F4FF000032DE90C0001ABFFF7F9
:101DB00028FCDDF840E012B0704700BFEC4600B5EB
:101DC0002DE900502DE9FF1F4FF000032DE90C0015
:101DD00001AAFFF795FCDDF840E012B0704700BFA4
:101DE000704700BF10F8012B11F8013B012A28BFF2
:101DF0009A42F7D0D01A7047034611F8012B03F826
:101E0000012B002AF9D17047034613F8012B002A51
:101E1000FBD1181A01387047430803F05533C01A34
:101E200000F03333800800F03330184400EB10101A
:101E30004FF0013300F00F305843000E70472DE98A
:101E4000F04786468C460846089E15467446194655
:101E5000002B40F0C2808542B2FA82F245D94AB1E5
:101E6000C2F1200300FA02FC2EFA03F3954043EA84
:101E70000C0C94404FEA154EA8B2BCFBFEF8230CA4
:101E80000EFB18CC08FB00F943EA0C43994528D90E
:101E9000EB1808F1FF3704D2994502D9A8F10207DF
:101EA0002B44A3EB0903A4B2B3FBFEFC0EFB1C33D3
:101EB0000CFB00F044EA0344A04214D92C190CF1A5
:101EC000FF3304D2A04202D9ACF102032C44241AFD
:101ED00043EA07401EB1D440002334607360BDE87C
:101EE000F0874746DDE76346F1E792BB431B0121DC
:101EF0004FEA154EAFB2B3FBFEFC200C0EFB1C33B9
:101F00000CFB07F840EA0343984562D9EB180CF143
:101F1000FF3004D2984502D9ACF102002B44A3EB68
:101F20000803A4B2B3FBFEFC0EFB1C330CFB07F74B
:101F300044EA0344A7424ED92C190CF1FF3304D2D2
:101F4000A74202D9ACF102032C44E41B43EA00404F
:101F5000C0E7C2F1200320FA03F1954090402EFA29
:101F600003F303434FEA154EAFB2B1FBFEFC0EFB89
:101F70001C10190C0CFB07F841EA0041884504FAD3
:101F800002F422D969180CF1FF3004D2884502D935
:101F9000ACF102002944A1EB08019BB2B1FBFEFCAD
:101FA0000EFB1C110CFB07F743EA01439F420ED9BD
:101FB000EB180CF1FF3104D29F4202D9ACF10201BF
:101FC0002B44DB1B41EA004192E76046E3E76146B0
:101FD000F7E76046A3E76346B7E7834206D916B939
:101FE000002108467BE7C6E900E0F9E7B3FA83F78A
:101FF0008FB9834201D3724508D8BEEB020460EB6F
:10200000030301209C461EB9002168E73846FAE721
:10201000C6E9004CF8E7C7F1200CBB4022FA0CF4EB
:102020001C432EFA0CF120FA0CF3B84001434FEA9E
:1020300014490EFA07F5B3FBF9F81FFA84FE09FB01
:1020400018300B0C08FB0EFA43EA00439A4502FADB
:1020500007F240D9E31808F1FF3004D29A4502D9BB
:10206000A8F102002344A3EB0A0389B2B3FBF9F8F9
:1020700009FB183308FB0EFE41EA03418E452CD9BB
:10208000611808F1FF3304D28E4502D9A8F102038A
:10209000214443EA0040A0FB0298A1EB0E01414518
:1020A000CE46434602D306D14D4504D2B9EB020ECB
:1020B00068EB04030138002EA6D0B5EB0E0261EBED
:1020C000030101FA0CFC22FA07F34CEA0303F9407E
:1020D000C6E9003198E74046C5E74346D9E7027AAA
:1020E00003467AB9427A82B1013A42724268111DBE
:1020F00012680260416003221A721A68100E1202FE
:102100001A607047013AD2B2F6E7B02070471FB5A7
:1021100003AB009300230C221946FFF7A9FA03989A
:1021200005B05DF804FBF2E72DE9F043054685B004
:102130000E464FF000083046FFF7D1FFB0280446A6
:1021400015D1B8F1000F0ED103AC43460E22414623
:1021500000942846FFF78CFA009443460F2241462C
:102160002846FFF7A9FA002005B0BDE8F083020673
:102170001DD4002303AF4FEA8009194600970D22B2
:102180002846FFF775FA5FFA89F9039B09F10409FC
:1021900014F0400F14BFA3EB09034B4403930097C3
:1021A00000230D2219462846FFF786FAC3E700F000
:1021B000F003802B18D104023046FFF790FF044350
:1021C000B4F5004F01D10920CEE724010023A2B2CB
:1021D00019462846FFF7F8FB0028F4D114F4004F05
:1021E00018BF4FF00108A6E7902B0DD100F00D03AA
:1021F0000D2BE8D003AF002300F00F020097194623
:102200002846FFF735FACAE7A02B13D1C34303F0E2
:1022100007034FF47F621A41030702F47F6201D57E
:1022200042F48042002319462846FFF7CDFB0028E0
:1022300081D0C8E7B02B46D1B12808D13046FFF78E
:102240004EFF431EDBB20E2B0246EBD9BBE7B22892
:1022500020D1002303AC0D22194600942846FFF735
:1022600007FA3046FFF73BFF022700F07F0110F02E
:102270008003039A01FA07F105D102F501720A44BD
:10228000039200948DE70A44304603920737FFF724
:1022900026FFEAE7B3280BD13046FFF720FF020301
:1022A00000F00F0002F47022013001230243BAE76C
:1022B00000F0FC03B42B86D000F0070201320123AA
:1022C00042F40022AFE7C02B44D1C6280AD13046E1
:1022D000FFF705FF020300F00F0002F47022013047
:1022E0000323E3E7C7280BD13046FFF7F8FE431E70
:1022F000DBB20E2B02463FF666AF0023042193E7C4
:1023000000F0F803C02B06D100F00F0201320323C6
:1023100042F4202287E7C8280DD13046FFF7DFFEC0
:1023200000F0F00200F00F0010320130052340EA07
:102330000232012178E7C9287FF445AF3046FFF724
:10234000CEFE020300F00F0002F4702201300523DC
:102350000243EEE700F0F803D02B7FF434AF00F037
:1023600007020132052342F40022E2E71FB50346CB
:102370000846DA6C536808321902019102921B0E6A
:10238000032201A98DF80C208DF80D30FFF7CCFE4B
:1023900005B05DF804FB08B5FFF7C5FE806C08BD0D
:1023A00008B5FFF7C0FEC06CC379023300EB8300B1
:1023B00008BD0000014B00221A607047443D002414
:1023C0000346084900F5E47030B50024984207D070
:1023D0004C38C2698A42F9D0156814602A46F9E778
:1023E00030BD00BF503D002410B50B4C002A14BF77
:1023F000134623460A46002814BF014621460748D3
:1024000029F0BFFE002383F31188BFF36F8F4FF0D5
:102410000403184602DF10BD944E04089B4E0408C6
:102420004C22044B02FB0133186B08B133F06CBF34
:1024300001487047543D0024C84E04080D4B70B548
:1024400004460360C06B29F072F9606A29F06FF9E5
:10245000D4E90456AE4207D1206918B1A169091A1E
:1024600034F0EFFA204670BD28462C353BF0DEF8FC
:10247000F0E700BFA42F0408054B10B50446036025
:10248000806918B1216A091A34F0DBFA204610BDC0
:10249000642F04080B4B10B504460360806A18B122
:1024A000216B091A34F0CDFAA06918B1216A091A12
:1024B00034F0C7FAA06818B12169091A34F0C1FADA
:1024C000204610BDC42F0408054B10B503603033FF
:1024D0000446103040F8083C29F06BF9204610BD46
:1024E00094300408A0F10800EEE700BF044B10B5DB
:1024F000044640F8283B29F05CF9204610BD00BF97
:102500002C29040870B5084B044600F5427500F10B
:1025100008060360AE4205D0603D05F1480029F091
:1025200048F9F7E7204670BD9C290408044B10B514
:10253000044640F8083B29F03CF9204610BD00BF96
:102540006828040800F1080373B504460D460360CB
:1025500011B9104820F0B6FC0846FFF755FC0F28CB
:1025600005EB0006019007D9002201A9204624F0BE
:10257000C7FF019B2060A3603246294620683BF0DC
:10258000B9F8019B2268002120466360D15402B053
:1025900070BD00BFD44E0408164A174B13B5C0E9EE
:1025A000002316490A23044601AAC0E902134FF288
:1025B00001131349143020F8043CFFF7C3FF01AAAC
:1025C000104904F12C00FFF7BDFF01AA0E4904F1E8
:1025D0004400FFF7B7FF01AA0C4904F15C00FFF7C4
:1025E000B1FF01AA0A4904F17400FFF7ABFF2046CE
:1025F00002B010BD011001000200030001800100C3
:10260000064F0408324F04084C4F04086A4F040870
:10261000784F04080B4A0C4B13B5C0E90023012383
:10262000C821044601AA038100238372074BC360BB
:102630006423C0E9041306491830FFF783FF2046DE
:1026400002B010BD031001000200018000004843E9
:102650006A4F0408044B10B5044640F8183B29F0B3
:10266000ECF8204610BD00BF581F0408054B10B5FC
:1026700004460360406A29F0A5F8E06829F0F1F803
:10268000204610BD5C2904082DE9F8430446184B88
:10269000064600F5547700254FF000084FF000097A
:1026A00044F8503B44F8405C2046A56044E90E895C
:1026B00044E9088944E9125544E90C5544E90A55AE
:1026C00044E9065544E9045544E90255C4E9005576
:1026D00029F0E7F8603444F8545C04F8505C04F8DE
:1026E0004F5CBC42DED13046C6F80853BDE8F883E3
:1026F0009C2904082DE9F3470646044600F5E478D2
:102700000025DFF860A0DFF860901022002120464D
:102710003CF054FAFF2301A884F84830C4E904557A
:10272000C4E9064AC4E90854C4E90A55C4E90C5589
:1027300029F013F801A8C4E9024929F017F801A803
:10274000A76929F00AF804F110034C3401A83B6092
:10275000064B7B6029F00AF84445D6D1304602B0DA
:10276000BDE8F087503D0024DBB8020879B70208C5
:10277000084B002103F1280203603C334260836070
:10278000054A436A10B5934200D110BD1C68196018
:102790002346F8E71C320408503D0024A0F1040051
:1027A000E6E700BF2DE9F04FDFF8A88089B02A4E98
:1027B000D8F8004014B909B0BDE8F08F94F8205063
:1027C0004FF04C0BD4F818A00022236815FB0BF730
:1027D00022495046C8F8003007EB060933F05CFF89
:1027E0000BFB056305F1010CCAF83490C3F834A063
:1027F00003F1280B6069D4F81CA0D4E90112D4E9D4
:1028000003E483F8485004B3C3F828E04C2303FBE7
:102810000565EC624FF0FF334FF0FF34CDF80090C8
:10282000CDE906340423CDE903C30023CDE9013308
:102830000B4B14F0AFFD2863514633F062FD07F1F6
:102840003800304434F0CBF8B2E79C62CBF8044057
:10285000044CDBE7403D0024543D00244BB7020804
:1028600081B6020887BA0208044B10B5044640F846
:10287000043B29F028F8204610BD00BFD0270408EB
:1028800008B590F8B03073B100231C3080F8943054
:10289000054B40F81C3C054B40F8143C1C3340F8F9
:1028A000103C28F0B3FF08BD442F0408203304086F
:1028B00090F838303BB1002380F83830024B40F8B4
:1028C000183B3AF0B3BE7047842F04082DE9FF4748
:1028D0000446DFF80C811CF0D1FD064603A828F061
:1028E0003CFF236A002B4FD0E5690DB9AB68FFDED2
:1028F0006F68BF1B002F47DC454506D02B68E3619E
:1029000000232B60236A013B236203A8A5F104097D
:1029100028F02CFFAA68FAB16B6803A804F11C0A1E
:1029200013446B6028F019FF6B68991BE3694345FA
:1029300005D0002B52D05A68921B914221DA2B68A5
:102940003BB9DAF800302B60CAF80050236A013333
:10295000236203A828F00AFF55F8043C48461B6888
:102960009847002FB7D01CF089FD064603A828F031
:10297000F4FE236A63B903A828F0F8FE04B0BDE8AA
:10298000F0879A461B68D2E703A828F0EFFEEAE733
:10299000E3691BB35D6803A8AD1B09D528F0E6FE0B
:1029A000606A3830022104B0BDE8F04734F01DB849
:1029B00028F0DCFE002DF3D06422002305F1630033
:1029C0000021FEF79DFC646B02460B4600200021AF
:1029D000CDE90001204615F01BFBCFE79B6886E799
:1029E000503D0024084B10B503F1280203603C332E
:1029F000044642608360D0E9720128F072FF2046ED
:102A0000FFF7B6FE204610BD841F0408A0F10400A5
:102A1000E8E700BF2DE9F041A2EB01081746836803
:102A2000044602680E469B1A98451AD9B8F1000F61
:102A300002DA184820F076FA404628F06DFE394652
:102A400002460546304628F066FF206818B1A168A6
:102A5000091A33F0F6FF25604544C4E90155BDE885
:102A6000F0814568AD1AA84508D83946304628F0A7
:102A700052FF63689842F2D06060F0E70D44304640
:102A8000294628F048FF62683946284628F043FF67
:102A9000F2E700BFA24F040813B51146044628F020
:102AA00046FF802304F10C000DF10502238101A9EA
:102AB000044B1B788DF80430FFF7ACFF204602B0C2
:102AC00010BD00BF38600024F8B5571A04460D4603
:102AD000164602D5074820F025FA384628F01CFE95
:102AE00007440246206031462846A76028F013FFBD
:102AF0006060F8BDA24F04082DE9F043804C00232C
:102B00008DB0804904F1180204F12805184663616C
:102B1000A26004F5807201270493C4E90652C4E957
:102B20000323784A059204F1200282E80300284634
:102B30002546D82219462E46C4E9003306243CF027
:102B40003DF805F128002422002124353CF036F818
:102B5000013C6F60F5D16C4820222146DFF8AC8142
:102B600000F12403C6F800010430A8F1440508F57B
:102B70002379C6E94136664BC6F80C313CF01EF8A5
:102B8000644B08F29522C6F810710521C6F834315D
:102B90000433099208AAC6F8383128465E4B0694D9
:102BA000079308F5C073CDF828800B93CDF82090DB
:102BB000CDE901320AAB22460093574B19F086FB50
:102BC000564B2146404603F1280248F8443C3C332A
:102BD00048F8402C4FF4C07248F83C3C3BF0EEFF04
:102BE00008F5C67110230846C8F88031C8E961119C
:102BF00028F077FED8F88431494A284649494FF4ED
:102C00008055C8F8883188F89442C8E9A34429F06F
:102C1000DDFE4548454A4FF4006103681465C2E98A
:102C20001032434B536590339365424BD365052374
:102C3000C2E9121482F8603040323F4BC3E91023DE
:102C40003E4A1C655A6590329A653D4ADA65022211
:102C5000C3E9125483F8602040333A4AC2E9103283
:102C60004FF400531465C2E91234374B40325361BC
:102C700090339361354BD361032382F82030344B7A
:102C8000C3E91023334AC3E912541C6540335A6127
:102C900090329A61304ADA61042283F820202F4A68
:102CA000154682F8607045F8403F2D4B056053652E
:102CB00090332C4893652C4BD3652C4BC2E91121E2
:102CC000C2E913442A49164A1E6029F07FFE294BA7
:102CD0001A68D20708D428481F60FFF70BFD104A76
:102CE0002649254829F072FE254A136813F001038E
:102CF00001BF01211160234A13600DB0BDE8F083CC
:102D0000F0440024212400080046002458420024F6
:102D100077B60208E41F04089FB60208841F04085F
:102D20002C460024E5290008403D002440AA002448
:102D3000801D0024D34F0408009A0024B81C0024EE
:102D4000DC4F0408C0790024F01B0024E14F040884
:102D500080690024281B0024E84F040840610024F7
:102D6000601A002439600024ED4F0408443D00241B
:102D7000B52300084C3D0024543D0024C123000825
:102D8000483D0024503D00242DE9F047ADF5307D4D
:102D9000BC4802AF1CF0C4FBBB4A0321BB4828F06F
:102DA0007CFC6C4688B002AAB94B02F11400B94908
:102DB0004FF4007528F0CFFCB749204628F0CBFC33
:102DC0009583C7F8043242F8103F00234FF4E651D0
:102DD000AE4801F0BFFCA546FFF7E4FCAF4AB0499E
:102DE0008AB013687B607E68AE4BC6F30B06D2F8E0
:102DF000009002AAB6F58A6F0EBF4FF001084FF09F
:102E000000080B46A84902F1140028F0A4FC19465A
:102E1000A64B02F1180028F09EFCC2F81C90158405
:102E2000C7F8043242F8103F00234FF4135197487B
:102E300001F090FC4022002107F1C800A5469C4CFF
:102E40003BF0BCFE47F21A7307F5BC729949A7F82C
:102E5000E03047F21B7307F1C800A7F8043141F2D4
:102E60008833C7F80831FFF76DFB934907F5017206
:102E700007F1EC0087F8E880FFF764FB2368BFF3F5
:102E80005B8FD90710D420461CF050FB60B107F1CE
:102E9000C8018A4817F040F8894A8A49874829F0CA
:102EA00095FD204633F0D2FD0023874C18203B616E
:102EB000C7E902331CF066FB04F1180C00F1180599
:102EC0000346B8603D612246083303CA624543F8B1
:102ED000080C43F8041C1446F5D17C4CFD602368B3
:102EE000BFF35B8FDA0710D420461CF01FFB60B1E4
:102EF00007F10801764815F019FA714A75497448C6
:102F000029F064FD204633F0A1FD734D704815F0A3
:102F10003DFA2B680446BFF35B8FDB070FD42846CE
:102F20001CF004FB58B16D496D4815F0A9FB644ACB
:102F30006C496B4829F04AFD284633F087FD002C88
:102F400040F0E784684A02215048684D28F0A5FB0C
:102F50004E480321664A28F0A0FB2B68BFF35B8F25
:102F6000D8070FD428461CF0E1FA58B161496248ED
:102F700015F00CFB524A61495F4829F027FD2846AD
:102F800033F064FD04215C48DFF8748115F00EFB1A
:102F90005C4A03213D4828F080FBD8F80050BFF37D
:102FA0005B8F15F001051CD140461CF0BFFAC0B183
:102FB0005548564B424A036000F1080354490572D4
:102FC000C560856180F8205045620563C0E904331F
:102FD00000F12003C0E90A3329F0F8FC404633F041
:102FE00035FD4C4D03214C4A284828F056FB2B68F0
:102FF000BFF35B8FD9070BD428461CF097FA38B182
:103000002F4A4649464829F0E1FC284633F01EFD88
:103010003C22002107F150003BF0D0FDB4220021FA
:1030200007F501703BF0CAFD002C00F08680DFF848
:10303000F4C007F5BC75BCE80F000FC59CE807009D
:1030400007F5BC7385E807001C4A0125204907F1F4
:10305000500018F05DFC07F5BC7087F88850FFF74A
:103060009BFA022307F50170C7F88431FFF708FCCB
:10307000254B2B4A07F50170019307F5BC731449E2
:10308000009351E0E9230008175004089C1B040832
:10309000030000013C500408495004080010005C83
:1030A00005500408F84F04085950040804000001B2
:1030B00014410024875004088F500408184100244C
:1030C0002C460024B5A80108CC1F040800410024A8
:1030D0000441002469280008C4400024C41F0408D7
:1030E000C8400024ED2400089F500408A440002498
:1030F0003151040810150408A84000242D250008AB
:103100006C40002441510408704000245C290408EC
:103110006D260008684000245E51040889B6020844
:1031200048090024881C0408B54B18F015FC07F565
:10313000BC7087F8B45228F069FBB24D2B68BFF31E
:103140005B8FDA070ED428461CF0F0F950B1AE4878
:10315000FFF79AFAAD4AAE49AB4829F037FC28464A
:1031600033F074FCAB4D2B68BFF35B8FDB070FD4E0
:1031700028461CF0DBF958B1A749A84816F09AFB7D
:10318000A24AA749A54829F021FC284633F05EFC55
:103190000C220F21A14816F09DFB6C220546002150
:1031A00007F586703BF00AFDB6F58A6F2AD14DB35C
:1031B00007F5BC70FFF72EFA0F2387F8823197F8D6
:1031C000743163B1002307F59E7087F87431954B15
:1031D000C7F80C31944BC7F814313AF027FA934BE7
:1031E00007F58670864A019307F5BC738B490093F7
:1031F000854B18F053FF012307F5C87087F8743129
:103200003AF014FA8A4D03218A4A8B4828F045FA8D
:103210002B68BFF35B8FDE0719D428461CF086F9B4
:10322000A8B1864A07F5BC73D069116A928C03C3B2
:1032300073491A8007F5BC72814818F0BBFB734ACA
:1032400080497F4829F0C2FB284633F0FFFB7E4AC5
:103250000321794828F021FA3C22002107F18C0053
:103260003BF0ACFC0CB34FF47A7307F124027749BE
:1032700007F5BE70C7F87831FFF764F907F18C00E5
:10328000FFF716FB694B6E4A07F18C00019307F5B7
:10329000BC736F4900935C4B18F0A6FB012307F544
:1032A000BE7087F8C4303AF0C1F96A4D2B68BFF39D
:1032B0005B8FD80710D428461CF038F960B1504A0B
:1032C0006549664818F0BCFB504A6549634829F0D7
:1032D0007DFB284633F0BAFB07F12C03002207F1EF
:1032E00024007B620B231146BA6287F82C2087F8F2
:1032F0004C20C7E90F22C7E911220093594B24F053
:103300006FF9012307F124015448FB6341F20103E3
:10331000A7F8403003F5B8337B644FF44073BB64C7
:10332000022387F84C3018F099FB032142484E4A9B
:1033300028F0B3F94D480368BFF35B8FD90721D458
:103340001CF0F4F8F0B14A4D4A4B2A4642F8043BCF
:10335000494B03F1100C1868083353F8041C164647
:10336000634503C63246F6D11B78284A33700023E2
:1033700042493F482B62C5E9063329F027FB3B4809
:1033800033F064FB3E4B3F4A03F1100618680833E4
:1033900053F8041C1546B34203C52A46F6D11B78E0
:1033A0002B70334DAA692B6A9B1A0B2B00F2E98212
:1033B0000C2028F0B1F9344902460646A1F10C0070
:1033C00028F066FBA86918B1296A091A33F039FB9D
:1033D000AE610C36C5E907662C4D03212C4A164810
:1033E00028F05BF92B68BFF35B8FDA075CD42846C3
:1033F0001CF09CF8002857D0264818F077FB4BE0CB
:103400001841002464400024501700242C46002456
:10341000052500084C400024B01404085040002446
:103420008BB60208DC300408143404087040002411
:1034300024400024775104089C1B0408881C0408BD
:103440002840002479240008975104086A4F040892
:10345000C8400024D03F0024A8400024D43F0024CA
:103460003D240008B3510408BF510408A83F0024BC
:10347000AC3F0024581F0408AE1C04085526000861
:10348000E1510408B03F0024FF510408703F0024BC
:1034900000520408743F0024BB4ABC49BC4829F0D0
:1034A00095FA284633F0D2FADFF8E8820321BA4AC7
:1034B000BA4828F0F2F8D8F80060BFF35B8F16F036
:1034C000010622D140461CF031F8F0B1B44DB54BA5
:1034D00005F10C00EE602B6030336E60AB60C0E92C
:1034E000016628F0DEF943F25843A74A2846AB8329
:1034F0004FF0FF33AC49AE6185F82860C5E9083369
:1035000029F064FA404633F0A1FAA84D2B68BFF3C6
:103510005B8FDB070FD428461CF008F858B1A4498C
:10352000A44818F04FFD984AA349A24829F04EFA42
:10353000284633F08BFAA149954818F065FBA0495D
:10354000934818F061FB9F49914818F0E5FA9E4AAC
:103550000321924828F0A1F897F88830B3B197F882
:10356000B4329BB107F15C01894818F0D5FA07F530
:103570000471874818F0D0FA07F1580193481AF0FF
:10358000B1FE07F5037191481AF0ACFE97F874315B
:1035900023B107F58A718D481AF0A4FE8C4A0321E5
:1035A0007E4828F07AF801238A4A8B498B4818F024
:1035B000C1FE97F8883033B1022307F150028849E1
:1035C000864818F0B7FE97F8B43233B1022307F5F6
:1035D00001728449814818F0ADFE0223824A834972
:1035E0007E4818F0A7FE97F8C43033B1022307F1E4
:1035F0008C027F49794818F09DFE97F8743133B1F9
:10360000022307F586727B49744818F093FE032362
:10361000794A7A49714818F08DFE0323654A784942
:103620006E4818F087FE0323594A76496B4818F014
:1036300081FE5B4A74490323684818F07BFE734A95
:103640000321564828F029F8002C69D107F5BC70F1
:10365000FEF7A2FF07F11400FC61B7F87851B7F844
:103660007A61C7E9054428F01CF907F5BC733246B6
:1036700029467B61664B57483B62664BFB6107F10D
:10368000140318F037F807F1140028F092F807F146
:103690001400FC61B7F87851B7F87C61C7E90544BC
:1036A00028F0FFF807F5BC73324629467B615A4B78
:1036B00048483B62594BFB6107F1140318F01AF8B4
:1036C00007F1140028F075F807F11400FC61B7F851
:1036D0007851B7F87E61C7E9054428F0E2F8504B0D
:1036E000324629463B624F4B3A48FB6107F11403CF
:1036F00018F000F807F1140028F05BF8B7F88231F1
:10370000B7F88021B7F87811324817F0CDFE23487A
:10371000454A032127F0C1FF07F5BC7028F076F871
:1037200097F87441002C40F0A48007F5BC70FEF7B8
:1037300071FF07F11400FC61B7F87851B7F87A61AE
:10374000C7E9054428F0ADF8384B324629463B62BC
:10375000374B2048FB6107F1140317F0CBFF07F14B
:10376000140028F026F807F11400FC61B7F878512E
:10377000B7F87C61C7E9054428F093F82D4B324631
:1037800029463B6258E000BF2C46002495240008DF
:10379000743F0024403F0024205204089C1B04086E
:1037A000443F002418300408FDBC01081C3F0024DD
:1037B000A8400024203F0024C9240008283F0024FA
:1037C0004C3F0024AC3F00243C520408304000240D
:1037D0005352040818410024E14F04081442002405
:1037E000755204087E5204082840002488520408B8
:1037F000955204089E520408D43F0024A85204089D
:10380000B4520408BA520408C6520408CB52040841
:10381000653A0008F9B60208093A0008D9B6020864
:10382000992A0008C7B60208EC5204087FB90208BA
:10383000B5B602086DB90208604B6148FB6107F13B
:10384000140317F057FF07F1140027F0B2FFB7F881
:103850008031B7F87E21B7F87811594817F024FE67
:103860005848594A032127F018FF07F5C87039F066
:10387000DDFE564A03215348062427F00EFF082197
:10388000534818F03DFC534A03214E4827F005FFEA
:10389000514D1BF019FE514BC3E90400286B08B1D0
:1038A00014F01AF8013C05F14C05F7D14FF0FF3147
:1038B0004FF0FF3032F0DCFD07F1240039F0B6FEA6
:1038C00007F18C00FEF7F4FF97F874315BB1444BBD
:1038D00007F59E7087F87441C7F80C31414BC7F863
:1038E000143139F0A3FE07F50170FEF7C9FF07F1A7
:1038F000080027F0E8FF07F1EC0039F097FE07F128
:10390000C80039F093FE002007F52E77BD46BDE8CC
:10391000F0874FF00309DFF8D0A0344814F0C4FE5C
:10392000DFF8CC8000250121404627F08AFE98F878
:1039300004302946013502460093504658F8083BAA
:1039400028F01FFC032DEED100214FF4FA6032F075
:103950008FFD0021264827F074FE0021254827F01E
:1039600070FE0021244827F06CFE4FF4FA6000211D
:1039700032F07EFDB9F10109D2D1204A2946FFF784
:10398000E3BAEE69B61A0B2E0AD91D49A1F10C0053
:1039900028F07EF8EB6998423FF41EADE8611BE524
:1039A000DFF8608046444046314628F071F8EA6905
:1039B00008F10C01304628F06BF8EFE7A3B60208D7
:1039C000184100249C1B0408205304085C5304087D
:1039D000144200247C530408543D0024F044002485
:1039E000DC30040814340408DF500408C840002404
:1039F000CC1F0408D41F0408DC1F04080951040864
:103A0000FF510408F3510408F0B515460A6813493C
:103A100085B0002304460878168817890DF1020244
:103A20000B7069468DF8000001A88DF801300393F2
:103A3000CDE90133FFF748F801AB3A463146084873
:103A400017F00AFC01A827F0F8FE2946204627F0C7
:103A50006EFF80232046238105B0F0BD386000242E
:103A600018410024F0B515460A68144985B00123B1
:103A700004460878168817890DF102020B70694612
:103A80008DF8013000238DF8000001A80393CDE9E3
:103A90000133FFF719F801AB3A463146084817F0F1
:103AA000DBFB01A827F0C9FE2946204627F03FFF8F
:103AB00080232046238105B0F0BD00BF386000247C
:103AC0001841002430B5C0430A440C4D914201D145
:103AD000C04330BD11F8013B83EA000404F00F0439
:103AE00055F8244084EA101080EA131303F00F0302
:103AF00055F8233083EA1010E8E700BFE81F0408F8
:103B00002DE9F04F97B00446894600AF90F802A027
:103B1000D7F880B03B62CBF3C003FA62BB6141B916
:103B2000457800780AEB800020444D4517D8A0EB7B
:103B30000409E378FB61BAF1000F02D01BF0010F1A
:103B400016D1FB6953BBFB6A1BB13A6A4946204652
:103B500098474D4628465C37BD46BDE8F08F461C69
:103B600009F101093046FEF74FF901303044DCE736
:103B70002378626899007A62FA6A796104EB8301BA
:103B8000002A40F000814D460E4601EB0A094FF035
:103B900000084E454CD101EB0A0610E01BF0020F65
:103BA000D1D023789A0004EB83017A6162687A624B
:103BB000FA6A002A77D14D4601EB0A0690461BF0BF
:103BC000050F0CBF02230123FB62FB6906EB430ACE
:103BD0000BF00203BB625645BCD016F8021B16F868
:103BE000013C54F82390994B994502D3984B994541
:103BF00036D3BB69002B40D0786A28F09BFA0028A6
:103C00003BD0E9468AB06A46924B53617B6AC2E96F
:103C100006314FF4007313848F4B42F8103F00239A
:103C20004FF412518D48023D00F094FDCD46D2E78D
:103C300016F8013BF96254F82300FEF7E5F8D7F8CF
:103C400084300130F96A4BB1D7F8883098453EBFCF
:103C5000D7F8843023F8180008F10108054498E7E4
:103C6000BB6923B1786A28F065FA0028C9D11BF036
:103C7000010F05D1FB6AED1AADE7BB6A002BAAD094
:103C80004846FEF7C1F8D7F8843053B1D7F88830EA
:103C900098453FBF431CD7F8842022F8183008F11C
:103CA0000108054497E7BAF1000F72D01BF0040633
:103CB00072D0D046002607F1480052463B61B962F7
:103CC0003AF054FFB96A3B6901EB0A02F969BA623A
:103CD000FA695200FA60BA6A02EB41023A610BF0EB
:103CE0000202BA603A69B96A8A4257D11BF0020FE0
:103CF00062780CBF4FEA580100217A621BF0010F75
:103D00003244D2B240F09F801BF0040F14BF4046F3
:103D10000020BB616270A0702046E1703A6A796948
:103D2000FB6A9847051EFFF615AFBB6941463A6A24
:103D300007F1480023707B6A84F802A06370FB6976
:103D4000E370FB6A9847B0F10008C0F2BB807B6962
:103D5000A9EB0A013A6AC91AFB68C91AD7E90A032A
:103D600098470028C0F2B080A8444FF0000B07F13C
:103D7000380A08EB0005B34572D300213A6AFB6AA2
:103D800008469847E6E656464FF0000807F1380027
:103D900093E75646D04697E7B04695E7BA6A12F8D9
:103DA000021B12F8015CBA6254F82500274A9042BF
:103DB00002D3274A90421ED3BA6932B1786A7B6037
:103DC00028F0B8F97B6800288CD1BA6802BB08F1EA
:103DD000280207F1300C08F1010008F102089444B0
:103DE00007F158025FFA88F852FA80F00CF8101CBC
:103DF00000F8105C76E7BA693AB1786A7B6028F01F
:103E000099F97B6800287FF46DAF1BF0010F09D092
:103E100006F1280207F13000711C161806F8205C24
:103E2000CEB25FE71BF0040F3FF45CAF08F128024D
:103E300007F1300008F1010102EB000808F8105CFE
:103E40005FFA81F84EE7002063E700BF60110408C5
:103E500068870408AF53040804000001C41B040869
:103E60001BF80A3054F8239087F83730D7F884309D
:103E70002BB3D7F888309B4521D2D7F8843033F85C
:103E80001B803A6A012107F13700FB6A9847002836
:103E90001ADB0544B8F1000F06D14846FDF7B4FF20
:103EA00000F101081FFA88F83A6A41464846FB6A61
:103EB0009847002808DB05440BF1010B5BE74FF046
:103EC0000008DEE7454645E6054643E6014B1B682C
:103ED000184700BF4C090024014B1860704700BF11
:103EE0004C09002430B585B004460D46102200214F
:103EF00068463AF063FE02232A4621468DF80230D6
:103F00006846034B019326F0F1FB05B030BD00BFBE
:103F1000CD3E000880B505460E461746984613F07C
:103F2000FFFCDFF8209003463BF048F90446424688
:103F300049F8003039463046A84754F8090001F0E6
:103F400065F900BF08000000044B162200B53BF0E5
:103F500035F91A504FF0FF305DF804FB0C000000FB
:103F60000F2800B508D90A4B09223BF027F91A504F
:103F70004FF0FF305DF804FB3023BFF35B8F5843F5
:103F8000044B1B58BFF35B8F002BECD00020F1E7F4
:103F90000C00000058090024302311494343083322
:103FA0000B4430B5BFF35B8F1A68BFF35B8FB2B1C0
:103FB000541EBFF35B8F53E8005F954204D143E882
:103FC000004CBCF1000FF6D1BFF35B8FEAD1012AA0
:103FD00005D13023584300230A180B50536030BDDD
:103FE0005009002438B504461546FFF7B9FF0028EC
:103FF0000DDB3023074A6343D0184068086015B1D1
:104000000C3313442B6030235C43105938BD00201F
:10401000FCE700BF500900244FF0FF334FF0FF32A0
:104020001C4870B528F0E1F800251B4BBFF35B8FEF
:104030001A68BFF35B8F7AB101353033102DF5D19B
:10404000164B17224FF0FF353BF0B8F81A501148C5
:1040500028F0CDF8284670BD3024BFF35B8F6C4349
:1040600053E8000F013043E800010029F8D10C4E5D
:10407000BFF35B8F331932515A609A6204F10C001E
:10408000304431F046FF04F12000304432F02FF983
:10409000DDE700BF44150024580900240C0000008F
:1040A000500900242DE9F041302416460F4A4443BC
:1040B000101911514660C362B6B1F368A3B10C4F39
:1040C0000C343BF07BF8054650F807801319304656
:1040D00040F2051228F078F8B8F15F0F04D0EB59E0
:1040E0005F2B08BF45F80780BDE8F0815009002428
:1040F0000C000000F8B50546FFF732FF002824DB6E
:104100003024134F4FF0FF324FF0FF336C4304F174
:104110000C063E44304628F068F83A1953689B680C
:104120008BB1D26A385912F4404F0AD029469847C9
:104130000446304628F05BF82846FFF72DFF20465E
:10414000F8BD9847F4E71C46F3E74FF0FF34F6E775
:1041500050090024054B00205A6822F002025A60E0
:104160005A6822F001025A60704700BF0010005CDC
:10417000164B82B0D3F8E02042F00072C3F8E02082
:10418000D3F8E02002F000720192019AD3F8F420F3
:1041900042F00202C3F8F420D3F8F42002F0020245
:1041A0000092009A0A4AD2F80423D20706D503F5F2
:1041B0000053D3F89030002002B07047D3F8A0200D
:1041C00042F00802C3F8A020F5E700BF00440258FF
:1041D000000400580C4B0D4A1A600D4AD36823F0B6
:1041E0003F0343F00403D3600A4B1A6841F2030310
:1041F000B3EB124F06D1084AD2F8083143F001035D
:10420000C2F80831704700BF901300240090D0031B
:10421000004802580010005C008000512DE9F04772
:10422000044607464FF00109DFF8508014B93846BC
:10423000BDE8F08794FAA4F5B5FA85F509FA05F317
:104240002E0108EB05156FEA030A24EA03042B7B11
:10425000002BEBD058F806301B694BB946440422BA
:10426000284607EA0A077368196828F063FADDE749
:10427000284698470028D9D1F0E700BF741C0408ED
:1042800030B5002289B00F490F4832F005FA0022FC
:10429000002300240D4D0E4928460094CDE9062345
:1042A0000E234FF44072CDE90334CDE90144094BAC
:1042B00013F070F80849284632F023F8204609B078
:1042C00030BD00BFDD420008E02E0024481E00245F
:1042D00080B20024F945000890540408014812F007
:1042E00075BD00BF341600242DE9F04780462048F4
:1042F0000F4628F005FA0646002832D00025284649
:10430000BDE8F087237B83B12368DB680BB12046CF
:104310009847636883F8069023681B69CBB9636884
:1043200004222046196828F005FA01361034544555
:10433000E8D3B8F1000FE2D0002DDFD02846FFF718
:104340006DFF0546002FF7D00021642032F090F871
:10435000F2E7204698470028E1D009FA06F31D430A
:10436000E3E7044C0546DFF810A04FF00109DEE753
:1043700040460024741C0408841C0408014B53F8B4
:10438000200070479020040808B5034608462BB16A
:10439000044A136000F024FC002008BD6FF01500F3
:1043A000FBE700BF500C002410B5044C237813B970
:1043B000034812F00BFD0123237010BD3A60002466
:1043C0003416002410B504460B4828F099F95CB166
:1043D0000A4BBFF35B8F53E8001F013943E800121B
:1043E000002AF8D1BFF35B8F054832F061F9054828
:1043F000BDE8104012F0EABC384600243C460024D8
:10440000E02E0024341600240020064BBFF35B8FFF
:10441000014653E8000F43E80012002AF9D1BFF328
:104420005B8F70473846002470B5FFF7EDFF084CEE
:104430000546084EB44200D370BD63685B792BB16A
:1044400023685B6813B12946204698471034F1E78A
:10445000741C0408841C040810B5044C044920464C
:1044600027F0CCFF034B1C6010BD00BF5C14002480
:104470007C2004083046002400230D4A4FF47A7152
:104480000C4810B513700C4A13600C4A1360FFF708
:104490007BFFFFF7E1FF0A4B0A4918468B4200D326
:1044A00010BD1A1A5C681033121101322271F5E73F
:1044B0003B6000241BC70208384600243C46002409
:1044C000741C0408841C04080146002200230148CF
:1044D00027F0B5BF5C140024014828F04EB800BF97
:1044E0005C140024024B0146186828F09AB800BFFB
:1044F00030460024014828F0CFB800BF5C140024E7
:10450000264B70B51878002846D0FFF7E5FF054622
:1045100000283ED1224B234C1B68002B12DD32F0C9
:1045200073F80A220023FCF7EBFED4E90032C01A2C
:1045300040F2E93361EB0201984271F1000101D3CD
:10454000FFF772FFD4E9003213F57A7342F10002EB
:10455000C4E90032BDE87040FFF7CCBF63685B7907
:1045600023B12368294620461B6898471034B4427B
:10457000F4D32846FFF7B6FF0B4BBFF35B8F53E82E
:10458000001F013943E80012002AF8D1BFF35B8F06
:10459000C0E7064C064EEAE770BD00BF3A60002453
:1045A00038460024D82E00243C460024741C0408FD
:1045B000841C040870B50D4D297861B90C4C01209C
:1045C0000C4EFFF791FEB44206D3FFF799FF002887
:1045D000FBD101232B7070BD63685B791BB123682D
:1045E00020469B6898471034EDE700BF3B600024ED
:1045F000741C0408841C040800212DE9F0470846B7
:10460000FFF772FE044658B34FF4FA784FF00009F2
:104610001C4B3AF0D3FD1C4A1B58136033B11B4BA3
:104620001B68092B02DD1A4812F0D0FB0025194F38
:10463000DFF85CA044B12046FFF7F0FD044618B94E
:104640004FF0FF384FF0FF39FFF75AFF064628B901
:10465000B5B942464B46504612F0F4FB3546E9E701
:104660004FF0FF384FF0FF39D2E72B689B691BB141
:1046700000222846114698471035BD42F5D3E8E799
:10468000054DFAE708000000344600243C460024AB
:1046900034160024841C0408741C040813B518483C
:1046A00028F02EF8174B1B7873B1EFF31184102309
:1046B00083F31288BFF36F8FFFF722FF84F3118813
:1046C000BFF36F8F02B010BD0F4B1B68002BF9D0EA
:1046D00050B9002200230D48CDE9002342F21072A8
:1046E000002313F095FCEDE70928EBD1074831F0E2
:1046F000DFFF074802B0BDE8104012F067BB00BF03
:104700003C4600243B60002434460024E02E002474
:1047100034160024064B10B504461B689847214602
:10472000A060044827F00AFFBDE81040FFF7B6BFBD
:10473000500C00245C140024044A054B9B1AB1EB76
:10474000D30F34BF52F8310000207047941B040887
:10475000741C04082DE9F04F8FB0C1F34A280D46B0
:10476000914604AF0C0DB8607B60B8F1000F63D0C8
:10477000002607F114034FF0040B4FF00A0AC7F8A4
:104780000C8032467E624846C7E90766019307F10E
:104790001C03CDF808B0CDF800A0F968FFF7B0F918
:1047A000B0F5006F03461CD36C468AB0D9F80410EC
:1047B00004AB26481A46C3E9050140F2FF71D961EE
:1047C0004FF400711984224B42F8103F4FF41251FC
:1047D00033462048FFF7BEFFA5462C37BD46BDE84F
:1047E000F08FC0F30A0804F117003B60184468F327
:1047F000532520F007008008FFF766FE044690B1BD
:104800003B6800F11001144A4846F961C7E90836CF
:1048100007F11403CDF808B0CDE900A307F11C039C
:10482000F968FFF76DF968F353257B68B96820468E
:104830002A4627F09EFFD0E704F1170020F007007A
:104840008008FFF741FE0446EDE700BFA5540408C9
:1048500004000001DC1B040847C70208406820B1BF
:10486000034BC01A40F3CF0070474FF0FF30704742
:10487000941B04080EB403B503AB0146054853F876
:10488000042B019300F096FF02B05DF804EB03B037
:10489000704700BF87C80208CA0605D48B064CBF04
:1048A00002490349FFF7E6BF704700BFE55404081B
:1048B000E45404082DE9F04F89B09B4604460D46A8
:1048C000149B90469DF84CA00693159B179E05934C
:1048D000169B0493BAF1000F00F09D8006F48073DC
:1048E00006F00209079327F023FF024600283ED076
:1048F00091492046FFF7BEFF0746B9F1000F08D0E7
:1049000016F0440F35D12A468C492046FFF7B2FFF6
:10491000074406F0010353B1894B2046894953F8F7
:104920002A20894B002A08BF1A46FFF7A3FF06F486
:104930008073002B49D006F00803002B63D1B8F137
:10494000000F66D0424681492046FFF793FF054697
:10495000069B3D44002B6DD1049B002B73D1F307C4
:1049600000F1E48031462046FFF796FFD8E0074685
:10497000C3E7774B18680028CAD0764B4FF47A7992
:104980004FF03C0C1B68B5FBF3F5B5FBF0F100FBF9
:1049900011554FF4616309FB05F5B1FBF3F2B5FB6B
:1049A000F0FE03FB121100FB1E55B1FBFCF309FBEB
:1049B00005F50CFB1311B5FBF0F500912046664997
:1049C000CDE901E5FFF756FFA2E706F00803EBB1DA
:1049D000624B2046624953F82A20FFF74BFF0546F9
:1049E000B8F1000F05D0424658492046FFF742FF74
:1049F0000544BBF1000FABD05A465A492046FFF799
:104A000039FF0544A4E74FF0000BE1E706F0080585
:104A1000E6E745469CE7BBF1010F069B06D1002B5C
:104A200064D1049B002B7BD000250CE0002BF8D038
:104A30004D485CE04D48069B22464D4927F049FB16
:104A4000049B002B68D0DFF82C81DFF82C91049FA9
:104A50004FF0000B31462046102F28BF1027FFF7DC
:104A60001BFF5D4545DC059B4FF0010B4946204689
:104A70001A78FFF7FFFE1BF0070F03D141462046CF
:104A8000FFF7F8FE5F453BD9059B4946204613F8E2
:104A90000B20FFF7EFFE0BF1010BBBF1100FEAD17A
:104AA0004FF0000B35492046FFF7E4FE5A46059BC0
:104AB00020469A5CA2F120015F29314928BF2E22AD
:104AC000FFF7D8FE0BF1010BBBF1100F1DD01BF04F
:104AD000070F03D141462046FFF7CCFE5F455A46FB
:104AE000E5D841462046FFF7C5FEEBE71F4855468F
:104AF000A1E7414620460BF1010BFFF7BBFEB0E7F3
:104B000020492046FFF7B6FEC5E7059B3B440593C9
:104B1000049BDB1B04939AD1BAF1000F7FF41FAF03
:104B2000204609B0BDE8F04F27F0A0BE064A204657
:104B30000449FFF79FFE15E7EC540408F0540408FD
:104B4000A020040846500408E7540408155504083A
:104B50004846002444460024F9540408B4200408BC
:104B6000195504081F550408BDC8020887C8020863
:104B7000B55700082C550408245504082E55040880
:104B8000305504082A55040842F20F73114A8B422B
:104B900073B5044628BF0B4605680521684625F015
:104BA00023F9636806460B2228465B680A4927F00A
:104BB0004FFE63683246694628465B6827F048FE28
:104BC00063681B2205495B68284627F041FE02B056
:104BD00070BD00BFB06504084F5504083355040884
:104BE00000210123064A904206D8064A01B9012352
:104BF0001360054B18607047400801215B00F2E725
:104C000040420F004446002448460024F8B50D46B3
:104C100004464618054FB44201D12846F8BD14F8A1
:104C2000011BBB6801485B689847F4E790140408CF
:104C3000014B036001207047FC2004082DE9F04778
:104C4000064600AF0C46002936D0E9468AB0A36874
:104C50006D46D1E9001221484FF0050AA846C5E982
:104C60000501C5E9072348F810AF002342464FF479
:104C700021511B48FFF76EFDCD466369AD46D4E96F
:104C800003121848C5F810A0C5E90501C5E90723B6
:104C9000002342464FF421511148FFF75BFDCD46FA
:104CA000E369114A01210E4827F0BCFDA3690F4AB0
:104CB00001210B4827F0B6FD012E07D1EFF3058344
:104CC0000B4A103B3146064827F0ACFD21463046E2
:104CD00011F0B4FCBD46BDE8F08700BFA55504083F
:104CE000141C0408D455040803560408125604087A
:104CF0004056040830BFFFF7FDBF00BF2DE9F0416B
:104D00000B4E0546DFF82C80324606EB0807CC1B1D
:104D10000949204639F02AFFA019083C42460021E3
:104D200039F04CFF07F10800C5F88440BDE8F08178
:104D30000000000008000000841C0408054B5A69AC
:104D40009B689A4204D0044A536843F080535360EE
:104D5000704700BF6456002400ED00E070B5294C98
:104D600006460D462848294927F035FEA36AD9048E
:104D70003CD52548264927F02EFE1720A36A1A05A0
:104D800004D52148234927F026FE18201D4CA36A8C
:104D90009B0512D51C48204927F01DFEA36BA26A73
:104DA000100409D51D4A0121174827F03BFD1EB10B
:104DB000A36A23F40043A3621920124CA36A590585
:104DC00004D51148164927F006FE1A20A36ADA0511
:104DD0000ED50D48134927F0FEFD1B20094A936AA2
:104DE00043F47F43936200232B7070BD1620C5E708
:104DF000A36A9B04F2D504480B4927F0ECFD1C2064
:104E0000ECE700BF00ED00E0141C04085356040852
:104E1000695604087A5604088D560408A6560408F4
:104E2000BB560408D6560408EE56040810B5204CAC
:104E30002049214827F0CFFDA36A990136D51E48A5
:104E40001E4927F0C8FD1E20A36ADA0104D51A48BE
:104E50001B4927F0C0FD1F20154CA36A1B0304D576
:104E60001548184927F0B7FD2120A36A590304D536
:104E70001148154927F0AFFD22200D4CA36A9A0373
:104E800004D50D48114927F0A6FD2320A36ADB03B2
:104E900004D509480E4927F09EFD2420044A936A50
:104EA0006FEA03436FEA1343936210BD1D20CBE703
:104EB00000ED00E01D570408141C040835570408D1
:104EC000485704086257040880570408A557040887
:104ED000BF5704082DE9F843364D804689463648C9
:104EE0003649174627F077FDAB6ADE0627D5112431
:104EF0003349314827F06FFDAB6A1D0704D51224F2
:104F000030492D4827F067FD2A4DAB6A980718D520
:104F10002D49294827F05FFD6E6BAB6A190646D50F
:104F20002A4A33460121244827F07CFCB9F1000FBE
:104F300003D0AB6A23F08003AB62132403E0102498
:104F4000DAE76FF015061B4DAB6ADA0704D51424B7
:104F50001F49194827F03FFDAB6A9B0604D515246D
:104F60001C49154827F037FD124B9A6AD50602D422
:104F70009A6A90070AD55B68190507D541463046FD
:104F800000F026FA10B180F309880224094B9A6ACE
:104F9000920603D55A6A22F400525A629A6A20464F
:104FA00042F0FF029A6200233B70BDE8F8836FF085
:104FB0001506C2E700ED00E0141C0408EA570408D7
:104FC000005804087A560408335804084B5804085B
:104FD00061580408EE5604082DE9F041664B8AB08A
:104FE00004460026D3F8048000AFC8F3080586F312
:104FF0001188BFF36F8F02F07F43B3F17F4F07D16A
:1050000002F00C03082B12D15C495D4827F0E3FC49
:10501000002634460023FB71EB1E092B00F28B8027
:10502000DFE803F00A81847D8989898989871007EF
:105030004CBF0C460126EDE75249514827F0CBFC06
:105040004D4D0023FB71EB6A9A0705D54E494C483C
:1050500027F0C1FC002332E0EB6A002B01DA4B4958
:10506000F5E7EB6A5B00F5D54949454827F0B3FC05
:105070006B69A26943F480736B61BFF34F8FBFF319
:105080006F8F6B6932F8022C23F480736B61BFF36E
:105090004F8FBFF36F8F4DF602739A4208D0AB6A01
:1050A000DBB27BB3FA1D01212046FFF713FF38E086
:1050B0002368384A0121324827F0B4FB2368FA7983
:1050C000E2B907F1080504F1200C2068083454F80F
:1050D000041C2A46644503C21546F6D17A6A002E9E
:1050E00045D0C2F3080121B96FEA52226FEA422289
:1050F0007A6207F108011846FFF7A0FD2837BD4680
:10510000BDE8F081AB6A13F47F4F04D0F91D012094
:10511000FFF724FE05E0AB6AB3F5803F9AD3FFF7B3
:1051200085FE0346CBE7FA1D0021BDE7F91D0020EF
:10513000EEE719498BE718F4F87F184AE8468AB079
:10514000174B18BF13466A461649103DC2E90513AE
:105150004FF40073D5611384134B42F8103F0023C2
:105160004FF411510648FFF7F5FAC54672E722F4ED
:10517000FF7222F00102BBE700ED00E0AE58040828
:10518000141C0408D9580408F058040811590408DC
:105190001F5904083E5904085A5904089558040830
:1051A000805804087E59040804000001044B5A6921
:1051B00042F010025A615A6922F008025A6170479F
:1051C00000ED00E0EFF30880EFF3098101B57246CE
:1051D000FFF702FF01BD00BF0A4880F308881020D6
:1051E00080F3118808484FF40461401880F309885F
:1051F000EFF314800221084380F31488BFF36F8F0C
:1052000000F0B2F880ED0024C0C30024084B9B6876
:1052100083420BD1EFF3058343B1064B5A6842F04A
:1052200080525A605A6A22F400425A6212F07EBBDF
:105230006456002400ED00E015498A684FF0300004
:105240001044EFF3098C80E8F01F102080F31288DF
:10525000BFF36F8F0F4F4FF000664A698A603E6060
:10526000D2F884000C4C2060D2F888000023C2F8E9
:10527000883080F3118804B5104600F00FF9BDE8BE
:10528000044002F1300090E8F01F8CF30988704769
:105290006456002404ED00E0784600241EF0040F5C
:1052A0000CBFEFF30880EFF30980816911F8021C4D
:1052B0000229FFD001B5724627F07DFB01BD00BF7A
:1052C00000B2002807DB0123410900F01F00024A59
:1052D000834042F82130704700E100E000B200282E
:1052E0000CDB4309012200F01F00054920338240F6
:1052F00041F82320BFF34F8FBFF36F8F704700BF7C
:1053000000E100E04209054B00F01F0053F82220A5
:10531000012303FA00F01040704700BF00E100E0F5
:1053200000B2013100284FEA0111C9B206DB00F1D9
:10533000604000F5614080F80013704700F00F00F6
:10534000014B1954704700BF14ED00E0044B054AAF
:1053500023F07F039360BFF34F8FBFF36F8F7047CE
:105360000000000800ED00E008B5FFF7EFFF0B4A72
:10537000D2F8883023F47003C2F88830EFF3148336
:1053800023F0040383F31488BFF36F8F11F050FAF6
:1053900012F036FC00F058F811F0A2FA00ED00E02F
:1053A00042F8203C203A009B08495360019B21F0C1
:1053B00001019360029B9161D3604FF08073D361D0
:1053C00000230265C0F88830704700BF153F000811
:1053D000094A0346906870B113F1160F406F05D06B
:1053E000A0F140029A4205D8834203D2814228BFED
:1053F00000207047002070476456002415460B4A71
:105400000E4608B50A4B9060D0F884201A6000F070
:1054100045F82C4686F309880020064B984720461D
:10542000002100220023044C204700BF64560024C2
:1054300078460024E7C90208153F0008014B1022F6
:105440001A61704700ED00E0002304481021C218E3
:105450000133962B82F80013F9D1704700E100E088
:1054600008B5EFF30583064A103B02EBC30152F87F
:10547000330049688847BDE80840FFF75FBC00BFBC
:1054800050150408024B0221024A034800F08AB872
:1054900000000824000000240C210408426F402171
:1054A000044B403A18461A60034AC3E9011201212D
:1054B00000F082B87C46002400000B1508B50346B6
:1054C0001048D0F89020C2F30722013A934207D93E
:1054D0000D4801210D4A27F0A5F96FF0150008BD10
:1054E000C0F898300A6822F01F021A4342F01002F6
:1054F000C0F89C208A6842F00102C0F8A02018463B
:10550000EDE700BF00ED00E0FC1B0408955904081E
:10551000F0B50E4685B01F4604460025B5420DDAAB
:10552000606810B397B1431E18420AD0104A2B4648
:105530000121104827F076F96FF01502104605B0EA
:10554000F0BD1F28F2D921680B42EFD1236801A9D1
:10555000019327F05CFAA3680343D0B20393FFF7EB
:10556000ADFF10F1160FE7D0421C01350C34D5E722
:10557000BB590408FC1B0408044B0522C3F8942003
:10558000BFF34F8FBFF36F8F704700BF00ED00E098
:10559000BFF35F8F024B0022C3F89420704700BF17
:1055A00000ED00E010B5034C01232278FFF7B0FFB7
:1055B000207010BD3D6000240B4A08B5002312780E
:1055C000FFF7A6FF10F1160F07D0084A0021D2F806
:1055D0009030C3F30723984200DB08BDC2F898005F
:1055E0000130C2F8A010F2E73D60002400ED00E0B9
:1055F0006A496B482DE9F043D1F8903085B00268D4
:10560000C3F307239A4200F2C580FFF7C1FF4B693D
:10561000DB031ED50023C1F88430BFF34F8FD1F8D0
:10562000803043F6E075C3F3C904C3F34E335B0126
:1056300003EA0507224647EA8276013AC1F8746216
:10564000F9D2203B13F1200FF2D1BFF34F8FBFF3FC
:105650006F8FD0E9004100225048A24201F10C01B5
:105660001AD1504C684600254F4F2270FFF7E0FAE0
:10567000DFF838810646DFF83891AE421FD1237833
:1056800000204649D1F89020C2F3072293427BDBE9
:105690000020FFF771FF4CE0C0F8982051F80C3C57
:1056A00023F01F031343013243F01003C0F89C3072
:1056B00051F8043C43F00103C0F8A030CDE7009856
:1056C0004FEA051C00EB0511CB683B40B3F5000F1A
:1056D00044D00AD8B3F5001F2ED0B3F5800F34D0D4
:1056E000B3F5801F10D00135C7E7B3F1807F3ED0FE
:1056F000B3F1007FF7D150F80C30886827F087F9B4
:105700004A6840F4802009E050F80C30886827F09F
:105710007EF940F088504A6840F43020039001A997
:105720002078CDE90123FFF7C9FE002828DA6FF0C1
:10573000150005B0BDE8F08350F80C30886827F0FC
:1057400066F94A6840EA0800E8E750F80C308868D3
:1057500027F05DF94A6840EA0900DFE750F80C30AD
:10576000886827F054F94A6840F08270D6E750F80C
:105770000C30886827F04BF94A6840F08870CDE714
:10578000237801332370AEE7C1F898300133C1F8B4
:10579000A00077E74FF0FF30CBE700BF00ED00E05F
:1057A000382004083D6000240000F0FF00000811CC
:1057B00000000206F0B587B007460E4614460021E9
:1057C000102268461D4639F0F9F902232A4621467F
:1057D0008DF802306846044BCDE90476019324F03D
:1057E00085FF07B0F0BD00BF2FCA020808B5024B05
:1057F0001B689847002008BD98460024034B044AC4
:105800001860937843F00203937070479846002421
:105810005C0C002408B5054826F0B3FC002383F394
:105820001188BFF36F8F0423184602DFDE59040886
:105830000649074821F00701C1F1105208B502F5E9
:10584000002226F0EEFB002008BD00BFBF3B032472
:105850009C4600244FF0FF324FF0FF33014811F017
:10586000BBB900BF6C0C0024014811F02DBA00BF79
:105870006C0C002438B50546FFF7ECFF08210848FA
:105880002A4626F04FFB044628B925B1054B0C22C9
:1058900039F094FC1A50FFF7E7FF204638BD00BFEF
:1058A0009C4600240C00000038B504460D46FFF766
:1058B000D1FF084821462A4626F034FB044628B981
:1058C00025B1054B0C2239F079FC1A50FFF7CCFFBB
:1058D000204638BD9C4600240C00000010B504464C
:1058E000FFF7B8FF0348214626F0CBFABDE8104089
:1058F000FFF7BABF9C46002438B5074C0025204668
:1059000030F007FB013504F1140030F0F0FC2434D2
:10591000052DF4D1002038BDA8460024214B70B5D8
:1059200082689A4215DD0133D0E9001692FBF3F349
:1059300001294FEAE37476F1000520DAC91844EB37
:105940000604C0E90014184901FB03238360012009
:1059500070BD002AFBDAB2F1004F1BBF9B1A13493E
:105960000323B3FBF1F3D0E90041DE1700290FDA7E
:1059700001F100459C42B5410ADA0020E8E7CD4339
:105980009D426FF00045A5EB0605A541D6DAF4E788
:10599000E41A61EB0601C0E90041044901FB03225E
:1059A0008260D4E7FFC99A3B003665C400CA9A3BBF
:1059B000012810B50C4609D0042818D10023002274
:1059C000C1E9002300238B60002010BD4FF0FF329F
:1059D0004FF0FF330A4826F0E6FB0028F4D1094BCC
:1059E0000FCB84E80F00064826F0D8FBECE7064B07
:1059F000162239F0E3FB1A504FF0FF30E5E700BF05
:105A00004C160024182F00240C000000F0B50022D2
:105A100085B00026002701280C460292CDE90067D8
:105A20000AD004280BD01623264A39F0C7FB13509E
:105A30004FF0FF3005B0F0BD6946FFF7B9FF30F019
:105A4000E3FD42F210720023FBF75AFC1E4B5A434F
:105A5000C4E90001A2602046FFF760FF08B98B236C
:105A6000E2E7D4E90010DDE9003200281ADA002A62
:105A700008DA4E424FF0004565EB0005B34272EB89
:105A80000505ECDB5B1842EB00022046C4E900325E
:105A9000A368029A1344A360FFF740FF0028DED0FA
:105AA0000020C7E751EA0005ECD0012B72F1000598
:105AB000E8DBCD439D426FF00045A5EB0005954125
:105AC000DFE700BF0C000000A08601002DE9F843CD
:105AD0000D46064608B301B33D2139F099F8E0B907
:105AE0000F4BD3F80090B9F1000F04D0C8464446DC
:105AF00058F8047B17B96FF001000CE02A463146D4
:105B0000384639F098F80028F1D17B5D3D2BEED175
:105B1000A4EB09008010BDE8F8836FF01500FAE7E8
:105B20005C47002470B50646E0B1FCF76DF9054608
:105B30004FF0FF324FF0FF330C4826F034FB0446A1
:105B400090B929463046FFF7C1FF002805DB084B16
:105B500001351B6853F820402C44044826F01EFBF6
:105B6000204670BD0546E3E70024F9E71C16002433
:105B70005C47002438B5054D00240134284630F038
:105B8000B6FB0C35052CF8D1002038BD6047002449
:105B900038B5054D00240134284630F0BAF91435E3
:105BA000052CF8D1002038BD9C4700240A4B0B4A35
:105BB00030B51C460025191BB1F5487F01D90020DE
:105BC00030BD03F198015068C3E926200160C83355
:105BD00003F8085C5160EEE7282F0024800C0024B5
:105BE00070B541690446857A0B4E59B1437ADB079B
:105BF00006D4302303FB05639B6A1B689B689847A8
:105C00000023636105EB4505214606EB0510BDE861
:105C1000704030F05ABA00BF7C160024827A3021DE
:105C2000064B01FB0233DA6A93F82230801A1B33E9
:105C300023F00303B0FBF3F0704700BF7C16002491
:105C400038B53024827A064B04FB02339B6AD3E9D1
:105C500001240C601568FFF7E1FF04FB005038BD1C
:105C60007C1600242DE9F04385B0054690461C467D
:105C70006846039130F0CAFCDDE90067EFF3118953
:105C8000102383F31288BFF36F8F2B8C002B43D02C
:105C9000EA8B9A4225D900220023284611F064F8A5
:105CA0000446F0B189F31188BFF36F8F039B002B7B
:105CB00043D032463B46684630F0CDFCA27A3021D4
:105CC000264B204601FB023303A99B6A1B681D6813
:105CD000DDE90023A847606180BB2046FFF780FF15
:105CE00026E0298C4B1E2B8489F31188BFF36F8F1C
:105CF00095F82230EA8B1B33EC6A521A23F0030327
